:100000000C942A000C9447000C9447000C94470071
:100010000C9447000C9447000C9447000C94470044
:100020000C9447000C9447000C9447000C94470034
:100030000C9447000C9447000C9447000C94470024
:100040000C9447000C9447000C9447000C94470014
:100050000C94470011241FBECFE5D4E0DEBFCDBF16
:1000600010E0A0E6B0E0EAEEF0E002C005900D92EC
:10007000A036B107D9F710E0A0E6B0E001C01D92AC
:10008000A036B107E1F70E9459000C9473000C945C
:10009000000090BD89B988E18AB98EE880BD0895D5
:1000A0005D9BFECF8CB95E9BFECF85B3809585BBF3
:1000B0000895CF93DF938FEF84BB10BC8FEB89B98A
:1000C00088E18AB98EE880BD82E085BBCCE5D0E0CE
:1000D0008FEF0E94500088E893E1FE013197F1F71D
:0A00E0000197D9F7F5CFF894FFCF90
:00000001FF
