:100000000C942A000C9447000C9447000C94470071
:100010000C9447000C9447000C9447000C94470044
:100020000C9447000C9447000C9447000C94470034
:100030000C9447000C9447000C9447000C94470024
:100040000C9447000C9447000C9447000C94470014
:100050000C94470011241FBECFE5D4E0DEBFCDBF16
:1000600010E0A0E6B0E0EAEDF0E002C005900D92ED
:10007000A036B107D9F710E0A0E6B0E001C01D92AC
:10008000A036B107E1F70E945B000C946B000C9462
:10009000000010BC89E189B9599888E18AB98EE8D5
:1000A00080BD08955D9BFECF8CB95E9BFECF85B36E
:1000B000809585BB08958FEF84BB10BC89E189B919
:1000C000599888E18AB98EE880BD82E085BB88E7CF
:0A00D0000E945200FCCFF894FFCF0D
:00000001FF
