:100000000C942A000C9447000C9447000C94470071
:100010000C9447000C9447000C9447000C94470044
:100020000C9447000C9447000C9447000C94470034
:100030000C9447000C9447000C9447000C94470024
:100040000C9447000C9447000C9447000C94470014
:100050000C94470011241FBECFE5D4E0DEBFCDBF16
:1000600010E0A0E6B0E0E8ECF0E002C005900D92F0
:10007000A036B107D9F710E0A0E6B0E001C01D92AC
:10008000A036B107E1F70E9449000C9462000C947D
:1000900000008FEF87BB83E088BB80E041E050E049
:1000A00029E933E0BA01082E02C0660F771F0A94CF
:1000B000E2F768BB8F5F843008F080E0F901319788
:0800C000F1F7F0CFF894FFCF37
:00000001FF
